{
  "_format": "hh-sol-artifact-1",
  "contractName": "DappLottery",
  "sourceName": "contracts/DappLottery.sol",
  "abi": [
    {
      "inputs": [
        {
          "internalType": "uint256",
          "name": "_servicePercent",
          "type": "uint256"
        }
      ],
      "stateMutability": "nonpayable",
      "type": "constructor"
    },
    {
      "anonymous": false,
      "inputs": [
        {
          "indexed": true,
          "internalType": "address",
          "name": "previousOwner",
          "type": "address"
        },
        {
          "indexed": true,
          "internalType": "address",
          "name": "newOwner",
          "type": "address"
        }
      ],
      "name": "OwnershipTransferred",
      "type": "event"
    },
    {
      "inputs": [
        {
          "internalType": "uint256",
          "name": "id",
          "type": "uint256"
        },
        {
          "internalType": "uint256",
          "name": "luckyNumberId",
          "type": "uint256"
        }
      ],
      "name": "buyTicket",
      "outputs": [],
      "stateMutability": "payable",
      "type": "function"
    },
    {
      "inputs": [
        {
          "internalType": "string",
          "name": "title",
          "type": "string"
        },
        {
          "internalType": "string",
          "name": "description",
          "type": "string"
        },
        {
          "internalType": "string",
          "name": "image",
          "type": "string"
        },
        {
          "internalType": "uint256",
          "name": "prize",
          "type": "uint256"
        },
        {
          "internalType": "uint256",
          "name": "ticketPrice",
          "type": "uint256"
        },
        {
          "internalType": "uint256",
          "name": "expirseAt",
          "type": "uint256"
        }
      ],
      "name": "createLottery",
      "outputs": [],
      "stateMutability": "nonpayable",
      "type": "function"
    },
    {
      "inputs": [],
      "name": "getLotteries",
      "outputs": [
        {
          "components": [
            {
              "internalType": "uint256",
              "name": "id",
              "type": "uint256"
            },
            {
              "internalType": "string",
              "name": "title",
              "type": "string"
            },
            {
              "internalType": "string",
              "name": "description",
              "type": "string"
            },
            {
              "internalType": "string",
              "name": "image",
              "type": "string"
            },
            {
              "internalType": "uint256",
              "name": "prize",
              "type": "uint256"
            },
            {
              "internalType": "uint256",
              "name": "ticketPrice",
              "type": "uint256"
            },
            {
              "internalType": "uint256",
              "name": "participants",
              "type": "uint256"
            },
            {
              "internalType": "uint256",
              "name": "winners",
              "type": "uint256"
            },
            {
              "internalType": "bool",
              "name": "drawn",
              "type": "bool"
            },
            {
              "internalType": "address",
              "name": "owner",
              "type": "address"
            },
            {
              "internalType": "uint256",
              "name": "createdAt",
              "type": "uint256"
            },
            {
              "internalType": "uint256",
              "name": "expirseAt",
              "type": "uint256"
            }
          ],
          "internalType": "struct DappLottery.LotteryStruct[]",
          "name": "Lotteries",
          "type": "tuple[]"
        }
      ],
      "stateMutability": "view",
      "type": "function"
    },
    {
      "inputs": [
        {
          "internalType": "uint256",
          "name": "id",
          "type": "uint256"
        }
      ],
      "name": "getLottery",
      "outputs": [
        {
          "components": [
            {
              "internalType": "uint256",
              "name": "id",
              "type": "uint256"
            },
            {
              "internalType": "string",
              "name": "title",
              "type": "string"
            },
            {
              "internalType": "string",
              "name": "description",
              "type": "string"
            },
            {
              "internalType": "string",
              "name": "image",
              "type": "string"
            },
            {
              "internalType": "uint256",
              "name": "prize",
              "type": "uint256"
            },
            {
              "internalType": "uint256",
              "name": "ticketPrice",
              "type": "uint256"
            },
            {
              "internalType": "uint256",
              "name": "participants",
              "type": "uint256"
            },
            {
              "internalType": "uint256",
              "name": "winners",
              "type": "uint256"
            },
            {
              "internalType": "bool",
              "name": "drawn",
              "type": "bool"
            },
            {
              "internalType": "address",
              "name": "owner",
              "type": "address"
            },
            {
              "internalType": "uint256",
              "name": "createdAt",
              "type": "uint256"
            },
            {
              "internalType": "uint256",
              "name": "expirseAt",
              "type": "uint256"
            }
          ],
          "internalType": "struct DappLottery.LotteryStruct",
          "name": "",
          "type": "tuple"
        }
      ],
      "stateMutability": "view",
      "type": "function"
    },
    {
      "inputs": [
        {
          "internalType": "uint256",
          "name": "id",
          "type": "uint256"
        }
      ],
      "name": "getLotteryLuckyNumbers",
      "outputs": [
        {
          "internalType": "string[]",
          "name": "",
          "type": "string[]"
        }
      ],
      "stateMutability": "view",
      "type": "function"
    },
    {
      "inputs": [
        {
          "internalType": "uint256",
          "name": "id",
          "type": "uint256"
        }
      ],
      "name": "getLotteryParticipants",
      "outputs": [
        {
          "components": [
            {
              "internalType": "address",
              "name": "account",
              "type": "address"
            },
            {
              "internalType": "string",
              "name": "lotteryNumber",
              "type": "string"
            },
            {
              "internalType": "bool",
              "name": "paid",
              "type": "bool"
            }
          ],
          "internalType": "struct DappLottery.ParticipantStruct[]",
          "name": "",
          "type": "tuple[]"
        }
      ],
      "stateMutability": "view",
      "type": "function"
    },
    {
      "inputs": [
        {
          "internalType": "uint256",
          "name": "id",
          "type": "uint256"
        }
      ],
      "name": "getLotteryResult",
      "outputs": [
        {
          "components": [
            {
              "internalType": "uint256",
              "name": "id",
              "type": "uint256"
            },
            {
              "internalType": "bool",
              "name": "completed",
              "type": "bool"
            },
            {
              "internalType": "bool",
              "name": "paidout",
              "type": "bool"
            },
            {
              "internalType": "uint256",
              "name": "timestamp",
              "type": "uint256"
            },
            {
              "internalType": "uint256",
              "name": "sharePerWinner",
              "type": "uint256"
            },
            {
              "components": [
                {
                  "internalType": "address",
                  "name": "account",
                  "type": "address"
                },
                {
                  "internalType": "string",
                  "name": "lotteryNumber",
                  "type": "string"
                },
                {
                  "internalType": "bool",
                  "name": "paid",
                  "type": "bool"
                }
              ],
              "internalType": "struct DappLottery.ParticipantStruct[]",
              "name": "winners",
              "type": "tuple[]"
            }
          ],
          "internalType": "struct DappLottery.lotteryResultStruct",
          "name": "",
          "type": "tuple"
        }
      ],
      "stateMutability": "view",
      "type": "function"
    },
    {
      "inputs": [
        {
          "internalType": "uint256",
          "name": "id",
          "type": "uint256"
        },
        {
          "internalType": "string[]",
          "name": "luckyNumbers",
          "type": "string[]"
        }
      ],
      "name": "importLuckyNumbers",
      "outputs": [],
      "stateMutability": "nonpayable",
      "type": "function"
    },
    {
      "inputs": [],
      "name": "owner",
      "outputs": [
        {
          "internalType": "address",
          "name": "",
          "type": "address"
        }
      ],
      "stateMutability": "view",
      "type": "function"
    },
    {
      "inputs": [
        {
          "internalType": "uint256",
          "name": "id",
          "type": "uint256"
        },
        {
          "internalType": "uint256",
          "name": "numOfWinners",
          "type": "uint256"
        }
      ],
      "name": "randomlySelectWinners",
      "outputs": [],
      "stateMutability": "nonpayable",
      "type": "function"
    },
    {
      "inputs": [],
      "name": "renounceOwnership",
      "outputs": [],
      "stateMutability": "nonpayable",
      "type": "function"
    },
    {
      "inputs": [],
      "name": "serviceBalance",
      "outputs": [
        {
          "internalType": "uint256",
          "name": "",
          "type": "uint256"
        }
      ],
      "stateMutability": "view",
      "type": "function"
    },
    {
      "inputs": [],
      "name": "servicePercent",
      "outputs": [
        {
          "internalType": "uint256",
          "name": "",
          "type": "uint256"
        }
      ],
      "stateMutability": "view",
      "type": "function"
    },
    {
      "inputs": [
        {
          "internalType": "address",
          "name": "newOwner",
          "type": "address"
        }
      ],
      "name": "transferOwnership",
      "outputs": [],
      "stateMutability": "nonpayable",
      "type": "function"
    }
  ],
  "bytecode": "0x60806040523480156200001157600080fd5b5060405162003e4738038062003e47833981810160405281019062000037919062000171565b620000576200004b6200006560201b60201c565b6200006d60201b60201c565b8060078190555050620001a3565b600033905090565b60008060009054906101000a900473ffffffffffffffffffffffffffffffffffffffff169050816000806101000a81548173ffffffffffffffffffffffffffffffffffffffff021916908373ffffffffffffffffffffffffffffffffffffffff1602179055508173ffffffffffffffffffffffffffffffffffffffff168173ffffffffffffffffffffffffffffffffffffffff167f8be0079c531659141344cd1fd0a4f28419497f9722a3daafe3b4186f6b6457e060405160405180910390a35050565b600080fd5b6000819050919050565b6200014b8162000136565b81146200015757600080fd5b50565b6000815190506200016b8162000140565b92915050565b6000602082840312156200018a576200018962000131565b5b60006200019a848285016200015a565b91505092915050565b613c9480620001b36000396000f3fe6080604052600436106100dd5760003560e01c806392e845f61161007f578063bcc82ec411610059578063bcc82ec4146102b1578063e2e43516146102dc578063e8d490f114610305578063f2fde38b14610330576100dd565b806392e845f61461020e578063949ee7521461024b578063ad19c83914610288576100dd565b806370b261ae116100bb57806370b261ae14610164578063715018a61461018f5780638772d2dd146101a65780638da5cb5b146101e3576100dd565b8063298ec208146100e257806335ea2063146100fe57806368fb2eba14610127575b600080fd5b6100fc60048036038101906100f791906123e0565b610359565b005b34801561010a57600080fd5b506101256004803603810190610120919061264c565b610650565b005b34801561013357600080fd5b5061014e600480360381019061014991906126a8565b6107bd565b60405161015b91906128c2565b60405180910390f35b34801561017057600080fd5b50610179610932565b60405161018691906128f3565b60405180910390f35b34801561019b57600080fd5b506101a4610938565b005b3480156101b257600080fd5b506101cd60048036038101906101c891906126a8565b61094c565b6040516101da9190612a2c565b60405180910390f35b3480156101ef57600080fd5b506101f8610b2f565b6040516102059190612a5d565b60405180910390f35b34801561021a57600080fd5b50610235600480360381019061023091906126a8565b610b58565b6040516102429190612b8a565b60405180910390f35b34801561025757600080fd5b50610272600480360381019061026d91906126a8565b610df3565b60405161027f9190612c6e565b60405180910390f35b34801561029457600080fd5b506102af60048036038101906102aa9190612c90565b610edf565b005b3480156102bd57600080fd5b506102c661123b565b6040516102d39190612f45565b60405180910390f35b3480156102e857600080fd5b5061030360048036038101906102fe91906123e0565b611571565b005b34801561031157600080fd5b5061031a611c6c565b60405161032791906128f3565b60405180910390f35b34801561033c57600080fd5b5061035760048036038101906103529190612f93565b611c72565b005b60056000838152602001908152602001600020600082815260200190815260200160002060009054906101000a900460ff16156103cb576040517f08c379a00000000000000000000000000000000000000000000000000000000081526004016103c29061301d565b60405180910390fd5b6002600083815260200190815260200160002060050154341015610424576040517f08c379a000000000000000000000000000000000000000000000000000000000815260040161041b906130af565b60405180910390fd5b60026000838152602001908152602001600020600601600081548092919061044b906130fe565b91905055506003600083815260200190815260200160002060405180606001604052803373ffffffffffffffffffffffffffffffffffffffff1681526020016004600086815260200190815260200160002084815481106104af576104ae613146565b5b9060005260206000200180546104c4906131a4565b80601f01602080910402602001604051908101604052809291908181526020018280546104f0906131a4565b801561053d5780601f106105125761010080835404028352916020019161053d565b820191906000526020600020905b81548152906001019060200180831161052057829003601f168201915b5050505050815260200160001515815250908060018154018082558091505060019003906000526020600020906003020160009091909190915060008201518160000160006101000a81548173ffffffffffffffffffffffffffffffffffffffff021916908373ffffffffffffffffffffffffffffffffffffffff16021790555060208201518160010190816105d39190613381565b5060408201518160020160006101000a81548160ff0219169083151502179055505050600160056000848152602001908152602001600020600083815260200190815260200160002060006101000a81548160ff02191690831515021790555034600860008282546106459190613453565b925050819055505050565b3373ffffffffffffffffffffffffffffffffffffffff166002600084815260200190815260200160002060080160019054906101000a900473ffffffffffffffffffffffffffffffffffffffff1673ffffffffffffffffffffffffffffffffffffffff16146106f4576040517f08c379a00000000000000000000000000000000000000000000000000000000081526004016106eb906134d3565b60405180910390fd5b600160046000848152602001908152602001600020805490501061074d576040517f08c379a00000000000000000000000000000000000000000000000000000000081526004016107449061353f565b60405180910390fd5b6000815111610791576040517f08c379a0000000000000000000000000000000000000000000000000000000008152600401610788906135ab565b60405180910390fd5b806004600084815260200190815260200160002090805190602001906107b89291906121d0565b505050565b606060036000838152602001908152602001600020805480602002602001604051908101604052809291908181526020016000905b8282101561092757838290600052602060002090600302016040518060600160405290816000820160009054906101000a900473ffffffffffffffffffffffffffffffffffffffff1673ffffffffffffffffffffffffffffffffffffffff1673ffffffffffffffffffffffffffffffffffffffff16815260200160018201805461087b906131a4565b80601f01602080910402602001604051908101604052809291908181526020018280546108a7906131a4565b80156108f45780601f106108c9576101008083540402835291602001916108f4565b820191906000526020600020905b8154815290600101906020018083116108d757829003601f168201915b505050505081526020016002820160009054906101000a900460ff161515151581525050815260200190600101906107f2565b505050509050919050565b60085481565b610940611cf5565b61094a6000611d73565b565b610954612229565b600660008381526020019081526020016000206040518060c0016040529081600082015481526020016001820160009054906101000a900460ff161515151581526020016001820160019054906101000a900460ff16151515158152602001600282015481526020016003820154815260200160048201805480602002602001604051908101604052809291908181526020016000905b82821015610b2057838290600052602060002090600302016040518060600160405290816000820160009054906101000a900473ffffffffffffffffffffffffffffffffffffffff1673ffffffffffffffffffffffffffffffffffffffff1673ffffffffffffffffffffffffffffffffffffffff168152602001600182018054610a74906131a4565b80601f0160208091040260200160405190810160405280929190818152602001828054610aa0906131a4565b8015610aed5780601f10610ac257610100808354040283529160200191610aed565b820191906000526020600020905b815481529060010190602001808311610ad057829003601f168201915b505050505081526020016002820160009054906101000a900460ff161515151581525050815260200190600101906109eb565b50505050815250509050919050565b60008060009054906101000a900473ffffffffffffffffffffffffffffffffffffffff16905090565b610b60612263565b600260008381526020019081526020016000206040518061018001604052908160008201548152602001600182018054610b99906131a4565b80601f0160208091040260200160405190810160405280929190818152602001828054610bc5906131a4565b8015610c125780601f10610be757610100808354040283529160200191610c12565b820191906000526020600020905b815481529060010190602001808311610bf557829003601f168201915b50505050508152602001600282018054610c2b906131a4565b80601f0160208091040260200160405190810160405280929190818152602001828054610c57906131a4565b8015610ca45780601f10610c7957610100808354040283529160200191610ca4565b820191906000526020600020905b815481529060010190602001808311610c8757829003601f168201915b50505050508152602001600382018054610cbd906131a4565b80601f0160208091040260200160405190810160405280929190818152602001828054610ce9906131a4565b8015610d365780601f10610d0b57610100808354040283529160200191610d36565b820191906000526020600020905b815481529060010190602001808311610d1957829003601f168201915b50505050508152602001600482015481526020016005820154815260200160068201548152602001600782015481526020016008820160009054906101000a900460ff161515151581526020016008820160019054906101000a900473ffffffffffffffffffffffffffffffffffffffff1673ffffffffffffffffffffffffffffffffffffffff1673ffffffffffffffffffffffffffffffffffffffff16815260200160098201548152602001600a820154815250509050919050565b606060046000838152602001908152602001600020805480602002602001604051908101604052809291908181526020016000905b82821015610ed4578382906000526020600020018054610e47906131a4565b80601f0160208091040260200160405190810160405280929190818152602001828054610e73906131a4565b8015610ec05780601f10610e9557610100808354040283529160200191610ec0565b820191906000526020600020905b815481529060010190602001808311610ea357829003601f168201915b505050505081526020019060010190610e28565b505050509050919050565b6000865111610f23576040517f08c379a0000000000000000000000000000000000000000000000000000000008152600401610f1a90613617565b60405180910390fd5b6000855111610f67576040517f08c379a0000000000000000000000000000000000000000000000000000000008152600401610f5e90613683565b60405180910390fd5b6000845111610fab576040517f08c379a0000000000000000000000000000000000000000000000000000000008152600401610fa2906136ef565b60405180910390fd5b60008311610fee576040517f08c379a0000000000000000000000000000000000000000000000000000000008152600401610fe59061375b565b60405180910390fd5b60008211611031576040517f08c379a0000000000000000000000000000000000000000000000000000000008152600401611028906137c7565b60405180910390fd5b611039611e37565b811161107a576040517f08c379a000000000000000000000000000000000000000000000000000000000815260040161107190613859565b60405180910390fd5b6110846001611e5c565b61108c612263565b6110966001611e72565b81600001818152505086816020018190525085816040018190525084816060018190525083816080018181525050828160a00181815250503381610120019073ffffffffffffffffffffffffffffffffffffffff16908173ffffffffffffffffffffffffffffffffffffffff168152505061110f611e37565b81610140018181525050818161016001818152505080600260008360000151815260200190815260200160002060008201518160000155602082015181600101908161115b9190613381565b5060408201518160020190816111719190613381565b5060608201518160030190816111879190613381565b506080820151816004015560a0820151816005015560c0820151816006015560e082015181600701556101008201518160080160006101000a81548160ff0219169083151502179055506101208201518160080160016101000a81548173ffffffffffffffffffffffffffffffffffffffff021916908373ffffffffffffffffffffffffffffffffffffffff160217905550610140820151816009015561016082015181600a015590505050505050505050565b60606112476001611e72565b67ffffffffffffffff8111156112605761125f612436565b5b60405190808252806020026020018201604052801561129957816020015b611286612263565b81526020019060019003908161127e5790505b50905060005b6112a96001611e72565b81101561156d576002600082815260200190815260200160002060405180610180016040529081600082015481526020016001820180546112e9906131a4565b80601f0160208091040260200160405190810160405280929190818152602001828054611315906131a4565b80156113625780601f1061133757610100808354040283529160200191611362565b820191906000526020600020905b81548152906001019060200180831161134557829003601f168201915b5050505050815260200160028201805461137b906131a4565b80601f01602080910402602001604051908101604052809291908181526020018280546113a7906131a4565b80156113f45780601f106113c9576101008083540402835291602001916113f4565b820191906000526020600020905b8154815290600101906020018083116113d757829003601f168201915b5050505050815260200160038201805461140d906131a4565b80601f0160208091040260200160405190810160405280929190818152602001828054611439906131a4565b80156114865780601f1061145b57610100808354040283529160200191611486565b820191906000526020600020905b81548152906001019060200180831161146957829003601f168201915b50505050508152602001600482015481526020016005820154815260200160068201548152602001600782015481526020016008820160009054906101000a900460ff161515151581526020016008820160019054906101000a900473ffffffffffffffffffffffffffffffffffffffff1673ffffffffffffffffffffffffffffffffffffffff1673ffffffffffffffffffffffffffffffffffffffff16815260200160098201548152602001600a8201548152505082828151811061154f5761154e613146565b5b60200260200101819052508080611565906130fe565b91505061129f565b5090565b3373ffffffffffffffffffffffffffffffffffffffff166002600084815260200190815260200160002060080160019054906101000a900473ffffffffffffffffffffffffffffffffffffffff1673ffffffffffffffffffffffffffffffffffffffff16148061161357506115e4610b2f565b73ffffffffffffffffffffffffffffffffffffffff163373ffffffffffffffffffffffffffffffffffffffff16145b611652576040517f08c379a0000000000000000000000000000000000000000000000000000000008152600401611649906134d3565b60405180910390fd5b6006600083815260200190815260200160002060010160009054906101000a900460ff16156116b6576040517f08c379a00000000000000000000000000000000000000000000000000000000081526004016116ad906138eb565b60405180910390fd5b600360008381526020019081526020016000208054905081111561170f576040517f08c379a00000000000000000000000000000000000000000000000000000000081526004016117069061397d565b60405180910390fd5b60008167ffffffffffffffff81111561172b5761172a612436565b5b60405190808252806020026020018201604052801561176457816020015b6117516122dc565b8152602001906001900390816117495790505b509050600060036000858152602001908152602001600020805480602002602001604051908101604052809291908181526020016000905b828210156118d157838290600052602060002090600302016040518060600160405290816000820160009054906101000a900473ffffffffffffffffffffffffffffffffffffffff1673ffffffffffffffffffffffffffffffffffffffff1673ffffffffffffffffffffffffffffffffffffffff168152602001600182018054611825906131a4565b80601f0160208091040260200160405190810160405280929190818152602001828054611851906131a4565b801561189e5780601f106118735761010080835404028352916020019161189e565b820191906000526020600020905b81548152906001019060200180831161188157829003601f168201915b505050505081526020016002820160009054906101000a900460ff1615151515815250508152602001906001019061179c565b5050505090506000815167ffffffffffffffff8111156118f4576118f3612436565b5b6040519080825280602002602001820160405280156119225781602001602082028036833780820191505090505b50905060005b8251811015611964578082828151811061194557611944613146565b5b602002602001018181525050808061195c906130fe565b915050611928565b50600060018351611975919061399d565b90505b60018110611a5c57600060018261198f9190613453565b611997611e37565b836040516020016119a99291906139f2565b6040516020818303038152906040528051906020012060001c6119cc9190613a4d565b905060008382815181106119e3576119e2613146565b5b60200260200101519050838381518110611a00576119ff613146565b5b6020026020010151848381518110611a1b57611a1a613146565b5b60200260200101818152505080848481518110611a3b57611a3a613146565b5b60200260200101818152505050508080611a5490613a7e565b915050611978565b5060005b84811015611ba75782828281518110611a7c57611a7b613146565b5b602002602001015181518110611a9557611a94613146565b5b6020026020010151848281518110611ab057611aaf613146565b5b602002602001018190525060066000878152602001908152602001600020600401848281518110611ae457611ae3613146565b5b6020026020010151908060018154018082558091505060019003906000526020600020906003020160009091909190915060008201518160000160006101000a81548173ffffffffffffffffffffffffffffffffffffffff021916908373ffffffffffffffffffffffffffffffffffffffff1602179055506020820151816001019081611b719190613381565b5060408201518160020160006101000a81548160ff02191690831515021790555050508080611b9f906130fe565b915050611a60565b5060016006600087815260200190815260200160002060010160006101000a81548160ff021916908315150217905550611bdf611e37565b60066000878152602001908152602001600020600201819055506006600086815260200190815260200160002060040180549050600260008781526020019081526020016000206007018190555060016002600087815260200190815260200160002060080160006101000a81548160ff021916908315150217905550611c6585611e80565b5050505050565b60075481565b611c7a611cf5565b600073ffffffffffffffffffffffffffffffffffffffff168173ffffffffffffffffffffffffffffffffffffffff1603611ce9576040517f08c379a0000000000000000000000000000000000000000000000000000000008152600401611ce090613b19565b60405180910390fd5b611cf281611d73565b50565b611cfd61214d565b73ffffffffffffffffffffffffffffffffffffffff16611d1b610b2f565b73ffffffffffffffffffffffffffffffffffffffff1614611d71576040517f08c379a0000000000000000000000000000000000000000000000000000000008152600401611d6890613b85565b60405180910390fd5b565b60008060009054906101000a900473ffffffffffffffffffffffffffffffffffffffff169050816000806101000a81548173ffffffffffffffffffffffffffffffffffffffff021916908373ffffffffffffffffffffffffffffffffffffffff1602179055508173ffffffffffffffffffffffffffffffffffffffff168173ffffffffffffffffffffffffffffffffffffffff167f8be0079c531659141344cd1fd0a4f28419497f9722a3daafe3b4186f6b6457e060405160405180910390a35050565b6000806103e88042611e499190613ba5565b611e539190613453565b90508091505090565b6001816000016000828254019250508190555050565b600081600001549050919050565b600060066000838152602001908152602001600020600401805480602002602001604051908101604052809291908181526020016000905b82821015611fed57838290600052602060002090600302016040518060600160405290816000820160009054906101000a900473ffffffffffffffffffffffffffffffffffffffff1673ffffffffffffffffffffffffffffffffffffffff1673ffffffffffffffffffffffffffffffffffffffff168152602001600182018054611f41906131a4565b80601f0160208091040260200160405190810160405280929190818152602001828054611f6d906131a4565b8015611fba5780601f10611f8f57610100808354040283529160200191611fba565b820191906000526020600020905b815481529060010190602001808311611f9d57829003601f168201915b505050505081526020016002820160009054906101000a900460ff16151515158152505081526020019060010190611eb8565b50505050905060006003600084815260200190815260200160002080549050600260008581526020019081526020016000206005015461202d9190613ba5565b905060006064600754836120419190613ba5565b61204b9190613be7565b90506000818361205b919061399d565b9050600084518261206c9190613be7565b905060005b85518110156120b5576120a28682815181106120905761208f613146565b5b60200260200101516000015183612155565b80806120ad906130fe565b915050612071565b506120c76120c1610b2f565b84612155565b83600860008282546120d9919061399d565b9250508190555085600660008881526020019081526020016000206000018190555060016006600088815260200190815260200160002060010160016101000a81548160ff021916908315150217905550806006600088815260200190815260200160002060030181905550505050505050565b600033905090565b60008273ffffffffffffffffffffffffffffffffffffffff168260405161217b90613c49565b60006040518083038185875af1925050503d80600081146121b8576040519150601f19603f3d011682016040523d82523d6000602084013e6121bd565b606091505b50509050806121cb57600080fd5b505050565b828054828255906000526020600020908101928215612218579160200282015b828111156122175782518290816122079190613381565b50916020019190600101906121f0565b5b5090506122259190612315565b5090565b6040518060c00160405280600081526020016000151581526020016000151581526020016000815260200160008152602001606081525090565b6040518061018001604052806000815260200160608152602001606081526020016060815260200160008152602001600081526020016000815260200160008152602001600015158152602001600073ffffffffffffffffffffffffffffffffffffffff16815260200160008152602001600081525090565b6040518060600160405280600073ffffffffffffffffffffffffffffffffffffffff168152602001606081526020016000151581525090565b5b80821115612335576000818161232c9190612339565b50600101612316565b5090565b508054612345906131a4565b6000825580601f106123575750612376565b601f0160209004906000526020600020908101906123759190612379565b5b50565b5b8082111561239257600081600090555060010161237a565b5090565b6000604051905090565b600080fd5b600080fd5b6000819050919050565b6123bd816123aa565b81146123c857600080fd5b50565b6000813590506123da816123b4565b92915050565b600080604083850312156123f7576123f66123a0565b5b6000612405858286016123cb565b9250506020612416858286016123cb565b9150509250929050565b600080fd5b6000601f19601f8301169050919050565b7f4e487b7100000000000000000000000000000000000000000000000000000000600052604160045260246000fd5b61246e82612425565b810181811067ffffffffffffffff8211171561248d5761248c612436565b5b80604052505050565b60006124a0612396565b90506124ac8282612465565b919050565b600067ffffffffffffffff8211156124cc576124cb612436565b5b602082029050602081019050919050565b600080fd5b600080fd5b600067ffffffffffffffff82111561250257612501612436565b5b61250b82612425565b9050602081019050919050565b82818337600083830152505050565b600061253a612535846124e7565b612496565b905082815260208101848484011115612556576125556124e2565b5b612561848285612518565b509392505050565b600082601f83011261257e5761257d612420565b5b813561258e848260208601612527565b91505092915050565b60006125aa6125a5846124b1565b612496565b905080838252602082019050602084028301858111156125cd576125cc6124dd565b5b835b8181101561261457803567ffffffffffffffff8111156125f2576125f1612420565b5b8086016125ff8982612569565b855260208501945050506020810190506125cf565b5050509392505050565b600082601f83011261263357612632612420565b5b8135612643848260208601612597565b91505092915050565b60008060408385031215612663576126626123a0565b5b6000612671858286016123cb565b925050602083013567ffffffffffffffff811115612692576126916123a5565b5b61269e8582860161261e565b9150509250929050565b6000602082840312156126be576126bd6123a0565b5b60006126cc848285016123cb565b91505092915050565b600081519050919050565b600082825260208201905092915050565b6000819050602082019050919050565b600073ffffffffffffffffffffffffffffffffffffffff82169050919050565b600061272c82612701565b9050919050565b61273c81612721565b82525050565b600081519050919050565b600082825260208201905092915050565b60005b8381101561277c578082015181840152602081019050612761565b60008484015250505050565b600061279382612742565b61279d818561274d565b93506127ad81856020860161275e565b6127b681612425565b840191505092915050565b60008115159050919050565b6127d6816127c1565b82525050565b60006060830160008301516127f46000860182612733565b506020830151848203602086015261280c8282612788565b915050604083015161282160408601826127cd565b508091505092915050565b600061283883836127dc565b905092915050565b6000602082019050919050565b6000612858826126d5565b61286281856126e0565b935083602082028501612874856126f1565b8060005b858110156128b05784840389528151612891858261282c565b945061289c83612840565b925060208a01995050600181019050612878565b50829750879550505050505092915050565b600060208201905081810360008301526128dc818461284d565b905092915050565b6128ed816123aa565b82525050565b600060208201905061290860008301846128e4565b92915050565b612917816123aa565b82525050565b600082825260208201905092915050565b6000612939826126d5565b612943818561291d565b935083602082028501612955856126f1565b8060005b858110156129915784840389528151612972858261282c565b945061297d83612840565b925060208a01995050600181019050612959565b50829750879550505050505092915050565b600060c0830160008301516129bb600086018261290e565b5060208301516129ce60208601826127cd565b5060408301516129e160408601826127cd565b5060608301516129f4606086018261290e565b506080830151612a07608086018261290e565b5060a083015184820360a0860152612a1f828261292e565b9150508091505092915050565b60006020820190508181036000830152612a4681846129a3565b905092915050565b612a5781612721565b82525050565b6000602082019050612a726000830184612a4e565b92915050565b600061018083016000830151612a91600086018261290e565b5060208301518482036020860152612aa98282612788565b91505060408301518482036040860152612ac38282612788565b91505060608301518482036060860152612add8282612788565b9150506080830151612af2608086018261290e565b5060a0830151612b0560a086018261290e565b5060c0830151612b1860c086018261290e565b5060e0830151612b2b60e086018261290e565b50610100830151612b406101008601826127cd565b50610120830151612b55610120860182612733565b50610140830151612b6a61014086018261290e565b50610160830151612b7f61016086018261290e565b508091505092915050565b60006020820190508181036000830152612ba48184612a78565b905092915050565b600081519050919050565b600082825260208201905092915050565b6000819050602082019050919050565b6000612be48383612788565b905092915050565b6000602082019050919050565b6000612c0482612bac565b612c0e8185612bb7565b935083602082028501612c2085612bc8565b8060005b85811015612c5c5784840389528151612c3d8582612bd8565b9450612c4883612bec565b925060208a01995050600181019050612c24565b50829750879550505050505092915050565b60006020820190508181036000830152612c888184612bf9565b905092915050565b60008060008060008060c08789031215612cad57612cac6123a0565b5b600087013567ffffffffffffffff811115612ccb57612cca6123a5565b5b612cd789828a01612569565b965050602087013567ffffffffffffffff811115612cf857612cf76123a5565b5b612d0489828a01612569565b955050604087013567ffffffffffffffff811115612d2557612d246123a5565b5b612d3189828a01612569565b9450506060612d4289828a016123cb565b9350506080612d5389828a016123cb565b92505060a0612d6489828a016123cb565b9150509295509295509295565b600081519050919050565b600082825260208201905092915050565b6000819050602082019050919050565b600061018083016000830151612db6600086018261290e565b5060208301518482036020860152612dce8282612788565b91505060408301518482036040860152612de88282612788565b91505060608301518482036060860152612e028282612788565b9150506080830151612e17608086018261290e565b5060a0830151612e2a60a086018261290e565b5060c0830151612e3d60c086018261290e565b5060e0830151612e5060e086018261290e565b50610100830151612e656101008601826127cd565b50610120830151612e7a610120860182612733565b50610140830151612e8f61014086018261290e565b50610160830151612ea461016086018261290e565b508091505092915050565b6000612ebb8383612d9d565b905092915050565b6000602082019050919050565b6000612edb82612d71565b612ee58185612d7c565b935083602082028501612ef785612d8d565b8060005b85811015612f335784840389528151612f148582612eaf565b9450612f1f83612ec3565b925060208a01995050600181019050612efb565b50829750879550505050505092915050565b60006020820190508181036000830152612f5f8184612ed0565b905092915050565b612f7081612721565b8114612f7b57600080fd5b50565b600081359050612f8d81612f67565b92915050565b600060208284031215612fa957612fa86123a0565b5b6000612fb784828501612f7e565b91505092915050565b600082825260208201905092915050565b7f6c75636b79206e756d62657220616c7265616479207573656400000000000000600082015250565b6000613007601983612fc0565b915061301282612fd1565b602082019050919050565b6000602082019050818103600083015261303681612ffa565b9050919050565b7f696e73756666696369656e742065746865727320746f20627579207469636b6560008201527f7400000000000000000000000000000000000000000000000000000000000000602082015250565b6000613099602183612fc0565b91506130a48261303d565b604082019050919050565b600060208201905081810360008301526130c88161308c565b9050919050565b7f4e487b7100000000000000000000000000000000000000000000000000000000600052601160045260246000fd5b6000613109826123aa565b91507fffffffffffffffffffffffffffffffffffffffffffffffffffffffffffffffff820361313b5761313a6130cf565b5b600182019050919050565b7f4e487b7100000000000000000000000000000000000000000000000000000000600052603260045260246000fd5b7f4e487b7100000000000000000000000000000000000000000000000000000000600052602260045260246000fd5b600060028204905060018216806131bc57607f821691505b6020821081036131cf576131ce613175565b5b50919050565b60008190508160005260206000209050919050565b60006020601f8301049050919050565b600082821b905092915050565b6000600883026132377fffffffffffffffffffffffffffffffffffffffffffffffffffffffffffffffff826131fa565b61324186836131fa565b95508019841693508086168417925050509392505050565b6000819050919050565b600061327e613279613274846123aa565b613259565b6123aa565b9050919050565b6000819050919050565b61329883613263565b6132ac6132a482613285565b848454613207565b825550505050565b600090565b6132c16132b4565b6132cc81848461328f565b505050565b5b818110156132f0576132e56000826132b9565b6001810190506132d2565b5050565b601f82111561333557613306816131d5565b61330f846131ea565b8101602085101561331e578190505b61333261332a856131ea565b8301826132d1565b50505b505050565b600082821c905092915050565b60006133586000198460080261333a565b1980831691505092915050565b60006133718383613347565b9150826002028217905092915050565b61338a82612742565b67ffffffffffffffff8111156133a3576133a2612436565b5b6133ad82546131a4565b6133b88282856132f4565b600060209050601f8311600181146133eb57600084156133d9578287015190505b6133e38582613365565b86555061344b565b601f1984166133f9866131d5565b60005b82811015613421578489015182556001820191506020850194506020810190506133fc565b8683101561343e578489015161343a601f891682613347565b8355505b6001600288020188555050505b505050505050565b600061345e826123aa565b9150613469836123aa565b9250828201905080821115613481576134806130cf565b5b92915050565b7f556e617574686f72697a656420656e7469747900000000000000000000000000600082015250565b60006134bd601383612fc0565b91506134c882613487565b602082019050919050565b600060208201905081810360008301526134ec816134b0565b9050919050565b7f416c72656164792047656e657261746564000000000000000000000000000000600082015250565b6000613529601183612fc0565b9150613534826134f3565b602082019050919050565b600060208201905081810360008301526135588161351c565b9050919050565b7f4c75636b79204e756d626572732063616e6e6f74206265207a65726f00000000600082015250565b6000613595601c83612fc0565b91506135a08261355f565b602082019050919050565b600060208201905081810360008301526135c481613588565b9050919050565b7f7469746c652063616e6e6f7420626520656d7074790000000000000000000000600082015250565b6000613601601583612fc0565b915061360c826135cb565b602082019050919050565b60006020820190508181036000830152613630816135f4565b9050919050565b7f6465736372697074696f6e2063616e6e6f7420626520656d7074790000000000600082015250565b600061366d601b83612fc0565b915061367882613637565b602082019050919050565b6000602082019050818103600083015261369c81613660565b9050919050565b7f696d6167652063616e6e6f7420626520656d7074790000000000000000000000600082015250565b60006136d9601583612fc0565b91506136e4826136a3565b602082019050919050565b60006020820190508181036000830152613708816136cc565b9050919050565b7f7072697a652063616e6e6f74206265207a65726f000000000000000000000000600082015250565b6000613745601483612fc0565b91506137508261370f565b602082019050919050565b6000602082019050818103600083015261377481613738565b9050919050565b7f7469636b657450726963652063616e6e6f74206265207a65726f000000000000600082015250565b60006137b1601a83612fc0565b91506137bc8261377b565b602082019050919050565b600060208201905081810360008301526137e0816137a4565b9050919050565b7f65787069726541742063616e6e6f74206265206c657373207468616e2066757460008201527f7572650000000000000000000000000000000000000000000000000000000000602082015250565b6000613843602383612fc0565b915061384e826137e7565b604082019050919050565b6000602082019050818103600083015261387281613836565b9050919050565b7f4c6f7474657279206861766520616c7265616479206265656e20636f6d706c6560008201527f7465640000000000000000000000000000000000000000000000000000000000602082015250565b60006138d5602383612fc0565b91506138e082613879565b604082019050919050565b60006020820190508181036000830152613904816138c8565b9050919050565b7f4e756d626572206f662057696e6e6572732065786365656473206e756d62657260008201527f206f66207061727469636970616e747300000000000000000000000000000000602082015250565b6000613967603083612fc0565b91506139728261390b565b604082019050919050565b600060208201905081810360008301526139968161395a565b9050919050565b60006139a8826123aa565b91506139b3836123aa565b92508282039050818111156139cb576139ca6130cf565b5b92915050565b6000819050919050565b6139ec6139e7826123aa565b6139d1565b82525050565b60006139fe82856139db565b602082019150613a0e82846139db565b6020820191508190509392505050565b7f4e487b7100000000000000000000000000000000000000000000000000000000600052601260045260246000fd5b6000613a58826123aa565b9150613a63836123aa565b925082613a7357613a72613a1e565b5b828206905092915050565b6000613a89826123aa565b915060008203613a9c57613a9b6130cf565b5b600182039050919050565b7f4f776e61626c653a206e6577206f776e657220697320746865207a65726f206160008201527f6464726573730000000000000000000000000000000000000000000000000000602082015250565b6000613b03602683612fc0565b9150613b0e82613aa7565b604082019050919050565b60006020820190508181036000830152613b3281613af6565b9050919050565b7f4f776e61626c653a2063616c6c6572206973206e6f7420746865206f776e6572600082015250565b6000613b6f602083612fc0565b9150613b7a82613b39565b602082019050919050565b60006020820190508181036000830152613b9e81613b62565b9050919050565b6000613bb0826123aa565b9150613bbb836123aa565b9250828202613bc9816123aa565b91508282048414831517613be057613bdf6130cf565b5b5092915050565b6000613bf2826123aa565b9150613bfd836123aa565b925082613c0d57613c0c613a1e565b5b828204905092915050565b600081905092915050565b50565b6000613c33600083613c18565b9150613c3e82613c23565b600082019050919050565b6000613c5482613c26565b915081905091905056fea2646970667358221220770bfb5d3917470aab9e3249ae22655f79f8e436dcae906444bfc90c0d54cf2f64736f6c63430008120033",
  "linkReferences": {},
  "deployedLinkReferences": {}
}